:04000000FEEF3FF0E0
:107F80000001C8EF3FF0E0EC3FF0C3EF3FF012001C
:107F9000CEEC3FF0C3EC3FF0FEEF3FF00D0E0301DF
:107FA000EC6FC78A0401088B0301F351F30B04093A
:107FB000F36FF389000EEF6F200EEE6FF38F120058
:107FC0000301F381F3B1E7EF3FF0E9EF3FF0E2EFB8
:107FD0003FF0EBC303F5EAC304F503C505F5066AF4
:107FE0000550066E056A04500524056E000E062035
:107FF000066E05C501F506C502F51200C0EF3FF09B
:00000001FF
