:04000000FEEF3FF0E0
:107F68000001B7EF3FF0CEEC3FF0BDEC3FF0FEEF85
:107F78003FF0E0EC3FF001C508F502C509F5070E32
:107F8800076E7D0EE82EFED7072EFCD700F0BDEF5A
:107F98003FF012000D0E0301EC6FC78A0401088B35
:107FA8000301F351F30B0409F36FF389000EEF6F2C
:107FB800200EEE6FF38F12000301F381F3B1E7EFA8
:107FC8003FF0E9EF3FF0E2EF3FF0EBC303F5EAC320
:107FD80004F503C505F5066A0550066E056A0450E2
:107FE8000524056E000E0620066E05C501F506C5BA
:087FF80002F51200B4EF3FF0A6
:00000001FF
