:04000000FEEF3FF0E0
:107ED70074657374696E6790EC3FF0D0EC3FF07196
:107EE700EF3FF0FEEF3FF0D70EF66E7E0EF76E0017
:107EF7000EF86E01EE17F110EE07F00900F5C4EE6B
:107F0700F4E550E150FAE101EE0DF10A0EEE6AE8F0
:107F170006FDE100016FEF3FF00001B38F700EAD7A
:107F270013100E0201116FC890000ED0B2010E722D
:107F37006FAB9FAB51F00B0309AB6FAB89AB8BAD4D
:107F47009DAD95CF0EAD17AB8F000EAF6F190EAE6F
:107F57006FAC8F1200036E000E026E000E016EB73B
:107F6700EF3FF0014A022A0201B0A9BDEF3FF0BF7F
:107F7700EF3FF0CDEF3FF002BECBEF3FF0E80E0151
:107F87005C030E0258D8A0CBEF3FF0CDEF3FF0B522
:107F9700EF3FF003C5A3F2120021EE17F111EE0433
:107FA700F1060EDBC4E3F4E806FCE2000E0C6E00FB
:107FB7000E0B6E040E0B24D96E050E0C20DA6EDF45
:107FC70050AEEC3FF00B4A0C2A0CBEF4EF3FF00C1E
:107FD7005009E1070E0B5CD8A0F4EF3FF0F6EF3F36
:107FE700F0DDEF3FF0090EAEEC3FF0C80E00D0E831
:097FF7002EFDD7120077EF3FF0D8
:00000001FF
