:040000005DEF00F0C0
:100008002E002E002E002E002E002E002E002E0078
:100018002E002E002E002E002E002E002E002E0068
:100028002E002E002E002E002E002E002E002E0058
:100038002E002E002E002E002E002E002E002E0048
:1000480030002E002E002E002E002E002E002E0036
:100058002E002E002E002E002E002E002E002E0028
:100068002E002E002E002E002E002E002E002E0018
:100078002E002E002E002E002E002E002E002E0008
:100088002E002E002E002E002E002E002E002E00F8
:100098002E002E002E002E002E002E002E002E00E8
:1000A8002E002E002E002E002E002E002E002E00D8
:0600B800FF00B5EF00F0AF
:1000C000000E0C6E000E0B6E68EF00F00B4A0C2A4F
:1000D0000201B0510CBE76EF00F0F40E0B5C010E85
:1000E0000C58D8A076EF00F078EF00F066EF00F043
:1000F000010E0924D96E050E0A20DA6EA1C2DFF4C2
:10010000094A0A2A0ABE8EEF00F00A5009E1080ED9
:10011000095CD8A08EEF00F090EF00F094EF00F0B3
:10012000000E0A6E000E096E1100020E0001B16F82
:10013000AD518F0B6009AD6F100E0201116FC890A9
:10014000000ED0B2010E726FAB9FAB51F00B0309E2
:10015000AB6FAB89AB8BAD9DAD95CF0EAD17000EE0
:10016000AF6F190EAE6FAC8F120001EE01F10A0EE7
:10017000EE6AE806FDE10401080E5D6F000E5E6F99
:10018000000E5F6F0001C5EF00F095EC00F0CDECC4
:1001900000F0C7EF00F05DEF00F0C80E00D0E82ED1
:0401A000FDD7120075
:00000001FF
