:040000005DEF00F0C0
:100008002E002E002E002E002E002E002E002E0078
:100018002E002E002E002E002E002E002E002E0068
:100028002E002E002E002E002E002E002E002E0058
:100038002E002E002E002E002E002E002E002E0048
:100048002E002E002E002E002E002E002E002E0038
:100058002E002E002E002E002E002E002E002E0028
:100068002E002E002E002E002E002E002E002E0018
:100078002E002E0090002E002E002E002E002E00A6
:100088002E002E002E002E002E002E002E002E00F8
:100098002E002E002E002E002E002E002E002E00E8
:1000A8002E002E002E002E002E002E002E002E00D8
:1000B800FF0032EF01F0E7EF00F090518E19D8A45D
:1000C80068EF00F06AEF00F06CEF00F0959D9499EE
:1000D8009AAD71EF00F073EF00F07CEF00F094A997
:1000E80078EF00F07AEF00F07CEF00F09A9D949999
:1000F80094A981EF00F083EF00F085EF00F0959D63
:10010800949998A98AEF00F08CEF00F0BAEF00F00C
:1001180099BB91EF00F093EF00F094EF00F0998510
:10012800000E026E000E016E99AB9DEF00F09FEF7E
:1001380000F098EF00F0000E8B6F99ABA6EF00F07F
:10014800A8EF00F0A1EF00F0000E8B6F014A022A21
:1001580002BEB8EF00F0025009E10C0E015CD8A015
:10016800B8EF00F0BAEF00F098EF00F098B9BFEFE1
:1001780000F0C1EF00F0DFEF00F099A1C6EF00F04A
:10018800C8EF00F0C1EF00F0958D8A51998599A1CB
:10019800D0EF00F0D2EF00F0CBEF00F0958D8A5150
:1001A800998599A1DAEF00F0DCEF00F0D5EF00F0C7
:1001B800958D8A5199859AAFE4EF00F0E6EF00F04B
:1001C800E7EF00F0958F02019BA5EDEF00F0EFEF50
:1001D80000F0F6EF00F09AA5F4EF00F0F6EF00F06B
:1001E80061EF00F01200C890C892040112811283D6
:1001F800220E0201116F210E126FF80E94179499B6
:10020800969F968D9B8F9B8D9B899B879B859B83B8
:100218009B81060E9F6F9C8F9C9D9C51C00B230950
:100228009C6F110E906FD68ED68A03016E85BA9494
:10023800AF840201948F120002019BA126EF01F006
:1002480028EF01F031EF01F09AA12DEF01F02FEF27
:1002580001F031EF01F05FEC00F011000401080E2D
:100268005D6F000E5E6F000E5F6F00013CEF01F0E6
:08027800F7EC00F05DEF00F06F
:00000001FF
