:040000005DEF00F0C0
:100008002E002E002E002E002E002E002E002E0078
:100018002E002E002E002E002E002E002E002E0068
:100028002E002E002E002E002E002E002E002E0058
:100038002E002E002E002E002E002E002E002E0048
:100048002E002E002E002E002E002E002E002E0038
:100058002E002E002E002E002E002E002E002E0028
:100068002E002E002E002E002E002E002E002E0018
:100078002E002E008D002E002E002E002E002E00A9
:100088002E002E002E002E002E002E002E002E00F8
:100098002E002E002E002E002E002E002E002E00E8
:1000A8002E002E002E002E002E002E002E002E00D8
:1000B800FF0009EF01F0020198AD65EF00F067EF6E
:1000C80000F05FEF00F098A96CEF00F06EEF00F021
:1000D8008CEF00F09499000E146E010E136E132825
:1000E8008B6F99AB7AEF00F07CEF00F075EF00F0C2
:1000F800134A142A14BE8AEF00F0145009E10D0EB9
:10010800135CD8A08AEF00F08CEF00F073EF00F0DA
:1001180095A991EF00F093EF00F08CEF00F098B9FB
:1001280098EF00F09AEF00F0BCEF00F0000E126EAE
:10013800000E116EB4EF00F0949999A1A6EF00F0AB
:10014800A8EF00F0A1EF00F0010E1124D96E050E02
:100158001220DA6E8AC2DFF4959D9499114A122A08
:100168008C51D8A4BAEF00F0BCEF00F0A0EF00F07B
:10017800949F000E9A6F948F12000201949F0401BD
:1001880010911093C890C89212811283220E020116
:10019800116F210E126F100E706F110E716FF80E25
:1001A800941794999591969F968D9699F30E961714
:1001B8009B9F9B9D9B999B879B959B939B819A95C6
:1001C8009A919A93030E9F6F9C8F9C9D9C51C00B94
:1001D80023099C6F90699169030E9E6F040E9D6FB1
:1001E800D68ED68A03016E85BA94AF8402019A9599
:1001F800948F0D0E156EFC0EE82EFED7152EFCD72B
:1002080002019B959B839B81120001EE01F1100E68
:10021800EE6AE806FDE10401080E5D6F000E5E6FF0
:0A022800000E5F6F000130EF01F0DF
:1002340002019AA120EF01F022EF01F025EF01F075
:100244009A915FEC00F01100020E0001B16FAD5104
:100254008F0B6009AD6FC1EC00F0120026EC01F0C9
:1002640038EC01F032EF01F05DEF00F00F0E020107
:040274008C6F120079
:00000001FF
