:040000005DEF00F0C0
:100008002E002E002E002E002E002E002E002E0078
:100018002E002E002E002E002E002E002E002E0068
:100028002E002E002E002E002E002E002E002E0058
:100038002E002E002E002E002E002E002E002E0048
:100048002E002E002E002E002E002E002E002E0038
:100058002E002E002E002E002E002E002E002E0028
:100068002E002E002E002E002E002E002E002E0018
:100078002E002E0088002E002E002E002E002E00AE
:100088002E002E002E002E002E002E002E002E00F8
:100098002E002E002E002E002E002E002E002E00E8
:1000A8002E002E002E002E002E002E002E002E00D8
:1000B800FF0000EF01F0020198AD65EF00F067EF77
:1000C80000F05FEF00F098A96CEF00F06EEF00F021
:1000D8008CEF00F0000E146E010E136E13C58BF238
:1000E800949994A97AEF00F07CEF00F075EF00F096
:1000F800134A142A14BE8AEF00F0145009E10D0EB9
:10010800135CD8A08AEF00F08CEF00F072EF00F0DB
:1001180098B991EF00F093EF00F0B5EF00F0000E02
:10012800126E000E116EADEF00F0949999A19FEF39
:1001380000F0A1EF00F09AEF00F0010E1124D96E43
:10014800050E1220DA6E8AC2DFF4959D9499114A41
:10015800122A8C51D8A4B3EF00F0B5EF00F099EF54
:1001680000F0000E9A6F12000201949F0401109192
:100178001093C890C89212811283220E0201116F47
:10018800210E126F100E706F110E716FF80E94170A
:1001980094999591969F968D9699F30E96179B8FA5
:1001A8009B8D9B899B979B959B939B919A959A91E5
:1001B8009A93030E9F6F9C8F9C9D9C51C00B2309A3
:1001C8009C6F90699169030E9E6F040E9D6FD68E89
:1001D800D68A03016E85BA94AF8402019A95948FEA
:1001E8000D0E156EFC0EE82EFED7152EFCD702015B
:1001F8009B959B839B81120001EE01F1100EEE6A24
:10020800E806FDE10401080E5D6F000E5E6F000E4A
:100218005F6F000126EF01F002019AA116EF01F0CD
:1002280018EF01F01BEF01F09A915FEC00F011005C
:10023800020E0001B16FAD518F0B6009AD6FB8ECC4
:1002480000F012001CEC01F02EEC01F028EF01F098
:0E0258005DEF00F000F0040E02018C6F12004A
:00000001FF
