:04000000FEEF3FF0E0
:107F6800056A046A0001B9EF3FF0BFEC3FF0DBECB3
:107F78003FF0FEEF3FF0090E02010F6FC78C0301BF
:107F88001D69428F42994251F00B0C09426F000E55
:107F9800056E000E046E04C540F305C541F3B696A0
:107FA800010E206F8F0E1E171E8FC79C1200000E29
:107FB800036E000E026E02C504F503C505F504C57F
:107FC80040F305C541F3270E016EF50EE82EFED7E6
:107FD800012EFCD700F0024A032A0228030E035898
:107FE800D8A0F9EF3FF0FBEF3FF0DFEF3FF0DBEF1A
:087FF8003FF01200B4EF3FF06E
:00000001FF
