:04000000FEEF3FF0E0
:100E00000025642C2025642C2025642C2025642CAE
:100E10002025642C2025642C2025642C2025642C7E
:100E20002025660A00696E66006E616E0000000E85
:100E30000501816F57C584F558C585F559C586F5F7
:100E40005AC587F587BF29EF07F027EF07F03DEF79
:100E500007F0010E816F84C501F585C502F586C5D1
:100E600003F587C504F550EC1DF001C584F502C5F6
:100E700085F503C586F504C587F5000E0501836F6A
:100E8000000E826FD2C571F5D3C572F58151D8B409
:100E90004CEF07F04EEF07F062EF07F08151D8A456
:100EA00054EF07F056EF07F05CEF07F0000E676FA6
:100EB0002B0E666F60EF07F0000E676F2D0E666FEA
:100EC00066C581F584C501F585C502F586C503F5BE
:100ED00087C504F53DEC18F001040210D8A473EFA7
:100EE00007F075EF07F0A8EF07F005018151D8B4BE
:100EF0007CEF07F07EEF07F087EF07F081C504F67F
:100F00007107D8A07207000E836F010E826F040E66
:100F10008225016E060E8321026E250E036E0E0ED3
:100F2000046E10EC1DF00501FD0E7127FF0E7223FB
:100F300055C511F556C512F5040E136E060E146E46
:100F400071C515F572C516F5FFEC1AF012EF0CF02D
:100F500084C501F585C502F586C503F587C504F589
:100F60003DEC18F001500210D8A4B9EF07F0BBEF28
:100F700007F0DBEF07F005018151D8B4C2EF07F0AD
:100F8000C4EF07F0CDEF07F081C504F67107D8A0D4
:100F90007207000E836F010E826F040E8225016EB0
:100FA000060E8321026E290E036E0E0E046E10ECE7
:100FB0001DF093EF07F0000E0501886F000E896F9A
:100FC000800E8A6F3F0E8B6F000E706F000E6F6F7A
:100FD00084C501F585C502F586C503F587C504F509
:100FE000000E056E000E066E000E076E000E086EF7
:100FF000AAEC1AF0D8B0FFEF07F001EF08F0E0EF2D
:1010000008F00EEF08F073C588F574C589F575C54D
:101010008AF576C58BF505016F4B702B88C50FF5EA
:1010200089C510F58AC511F58BC512F5000E136E32
:10103000000E146E200E156E410E166E73EC0EF03F
:101040000FC573F510C574F511C575F512C576F5A4
:1010500005017351845D016E74518559026E75519D
:101060008659036E76518759046E3CEC1BF004BE22
:1010700045EF08F004500310021009E1020E015C74
:10108000D8A045EF08F047EF08F003EF08F073C56C
:1010900028F574C529F575C52AF576C52BF584C5DF
:1010A0002CF585C52DF586C52EF587C52FF5BBEC2E
:1010B00017F0D8A05EEF08F060EF08F003EF08F03B
:1010C00005018851845D016E89518559026E8A51EE
:1010D0008659036E8B518759046E3CEC1BF004BE9D
:1010E0007FEF08F004500310021007E1020E015CCC
:1010F000D8B07DEF08F07FEF08F0C7EF08F088C5A3
:1011000084F589C585F58AC586F58BC587F5E0EF39
:1011100008F088C528F589C529F58AC52AF58BC543
:101120002BF5000E2C6E000E2D6E200E2E6E410E35
:101130002F6E88EC10F028C588F529C589F52AC5D9
:101140008AF52BC58BF505016F07D8A0700788516C
:10115000845D016E89518559026E8A518659036EEC
:101160008B518759046E3CEC1BF004BEC5EF08F0B0
:1011700004500310021007E1020E015CD8B0C3EF67
:1011800008F0C5EF08F0C7EF08F07FEF08F084C55E
:1011900028F585C529F586C52AF587C52BF588C5A7
:1011A0002CF589C52DF58AC52EF58BC52FF5BBEC21
:1011B00017F0D8A0DEEF08F0E0EF08F089EF08F0B4
:1011C0005BC569F569C56AF50501D5BFEAEF08F0A9
:1011D000ECEF08F0F2EF08F0D4C562F5D5C563F581
:1011E000F6EF08F0000E636F060E626F62C56DF5D4
:1011F00063C56EF56D4B6E2B660E6A19D8A403EFAE
:1012000009F005EF09F025EF09F070BF0CEF09F0C8
:101210000AEF09F018EF09F0000E886F000E896FD1
:10122000800E8A6F3F0E8B6F000E706F000E6F6F17
:10123000670E6919D8B41FEF09F021EF09F025EF07
:1012400009F06F516D2770516E23000E786F000EFC
:10125000776F84C579F585C57AF586C57BF587C531
:101260007CF588C573F589C574F58AC575F58BC598
:1012700076F5B6EF09F079C528F57AC529F57BC56D
:101280002AF57CC52BF588C52CF589C52DF58AC5B1
:101290002EF58BC52FF588EC10F028C541F529C532
:1012A00042F52AC543F52BC544F5B3EC13F041C50F
:1012B0007DF542C57EF543C57FF544C580F57DC506
:1012C00001F57EC502F57FC503F580C504F538EC50
:1012D00017F001C56BF502C56CF579C528F57AC51F
:1012E00029F57BC52AF57CC52BF57DC513F57EC593
:1012F00014F57FC515F580C516F588C50FF589C5A8
:1013000010F58AC511F58BC512F573EC0EF00FC5FB
:101310002CF510C52DF511C52EF512C52FF543EC92
:101320001CF028C579F529C57AF52AC57BF52BC5AA
:101330007CF588C528F589C529F58AC52AF58BC5A8
:101340002BF5000E2C6E000E2D6E200E2E6E410E13
:101350002F6E88EC10F028C588F529C589F52AC5B7
:101360008AF52BC58BF50501774B782B6D51775D91
:101370007851800A5C6E6E51800A5C58D8A0C3EF29
:1013800009F0C5EF09F03BEF09F088C50FF589C5F5
:1013900010F58AC511F58BC512F5000E136E000EFF
:1013A000146EA00E156E400E166E73EC0EF00FC587
:1013B0007DF510C57EF511C57FF512C580F579C59F
:1013C00028F57AC529F57BC52AF57CC52BF57DC5A1
:1013D0002CF57EC52DF57FC52EF580C52FF5BBEC10
:1013E00017F0D8B0F6EF09F0F8EF09F003EF0AF0C4
:1013F000000E05017D6F000E7E6F000E7F6F000EE8
:10140000806F2CEF0AF079C501F57AC502F57BC52E
:1014100003F57CC504F57DC505F57EC506F57FC5DC
:1014200007F580C508F5AAEC1AF0D8A01AEF0AF063
:101430001CEF0AF02CEF0AF005016BB122EF0AF065
:1014400024EF0AF02CEF0AF0000E7D6F000E7E6F85
:10145000000E7F6F000E806F84C501F585C502F513
:1014600086C503F587C504F57DC505F57EC506F57A
:101470007FC507F580C508F513EC0CF001C579F5BB
:1014800002C57AF503C57BF504C57CF579C528F559
:101490007AC529F57BC52AF57CC52BF5000E136EA0
:1014A000000E146E200E156E410E166E73C50FF5EC
:1014B00074C510F575C511F576C512F573EC0EF00F
:1014C0000FC52CF510C52DF511C52EF512C52FF53C
:1014D000BBEC17F0D8A06FEF0AF071EF0AF09AEFAB
:1014E0000AF005016F4B702B73C50FF574C510F52D
:1014F00075C511F576C512F5000E136E000E146E4B
:10150000200E156E410E166E73EC0EF00FC573F5BE
:1015100010C574F511C575F512C576F5660E050191
:101520006A19D8A496EF0AF098EF0AF09AEF0AF039
:101530006D4B6E2B73C588F574C589F575C58AF535
:1015400076C58BF56FC560F570C561F5000E0501B8
:10155000686F000E656F000E646F000E786F000EEE
:10156000776F98EF0BF079C528F57AC529F57BC51B
:101570002AF57CC52BF588C52CF589C52DF58AC5BE
:101580002EF58BC52FF588EC10F028C541F529C53F
:1015900042F52AC543F52BC544F5B3EC13F041C51C
:1015A0007DF542C57EF543C57FF544C580F57DC513
:1015B00001F57EC502F57FC503F580C504F538EC5D
:1015C00017F002BEEFEF0AF0025007E10A0E015CCD
:1015D000D8B0EDEF0AF0EFEF0AF0FFEF0AF07DC5AB
:1015E00001F57EC502F57FC503F580C504F538EC2D
:1015F00017F001C56BF502C56CF504EF0BF0000E9A
:1016000005016C6F090E6B6F05016851D8A40BEFD3
:101610000BF00DEF0BF035EF0BF061BF14EF0BF09B
:1016200012EF0BF035EF0BF0040E8225D96E060E8B
:101630008321DA6E2E0EDF6E824B832B7107D8A0CA
:101640007207010E686F35EF0BF0040E8225D96E1C
:10165000060E8321DA6E300EDF6E824B832B71070C
:10166000D8A072076407D8A0650764516511D8A493
:101670003CEF0BF03EEF0BF025EF0BF0040E822554
:10168000D96E060E8321DA6E6B51300FDF6E824BFE
:10169000832B7107D8A0720779C528F57AC529F57B
:1016A0007BC52AF57CC52BF57DC513F57EC514F5E4
:1016B0007FC515F580C516F588C50FF589C510F5E8
:1016C0008AC511F58BC512F573EC0EF00FC52CF51C
:1016D00010C52DF511C52EF512C52FF543EC1CF0E4
:1016E00028C579F529C57AF52AC57BF52BC57CF582
:1016F00088C528F589C529F58AC52AF58BC52BF536
:10170000000E2C6E000E2D6E200E2E6E410E2F6ED2
:1017100088EC10F028C588F529C589F52AC58AF511
:101720002BC58BF505016007D8A06107774B782B97
:101730006D51775D7851800A5C6E6E51800A5C58FD
:10174000D8B0A5EF0BF0A7EF0BF0B5EF0BF083BF10
:10175000B3EF0BF0835109E14B0E825DD8A0B3EFDC
:101760000BF0B5EF0BF0B3EF0AF0000E786F4F0EF1
:10177000776F040E7725D96E060E7821DA6EDF6A50
:10178000040E5C6E060E5D6E82515C5E83515D5A86
:1017900077515C24016E78515D20026E040E036E59
:1017A000060E046E82C505F583C506F51BEC1CF01C
:1017B00005018251775D826F83517859836F815122
:1017C000D8A4E5EF0BF0E8EF0BF0010EE9EF0BF01A
:1017D000000E776F786B8151D8B4F1EF0BF0F3EF17
:1017E0000BF0FEEF0BF08207D8A08307040E8225D2
:1017F000D96E060E8321DA6E81C5DFF47751715FF1
:101800007851725B55C511F556C512F5040E822547
:10181000136E060E8321146E71C515F572C516F58B
:10182000FFEC1AF012000450800B0D6E04500424DB
:101830000F6E03AE1EEF0CF020EF0CF021EF0CF05A
:101840000F800F50D8B427EF0CF029EF0CF03EEFCB
:101850000CF00F28D8A42FEF0CF031EF0CF039EF7B
:101860000CF0000E016E000E026E000E036E000EF4
:10187000046E038E000E046E46EF0CF0000E016E37
:10188000000E026E000E036E000E046E0850800BF8
:101890000E6E0D500E18D8B450EF0CF052EF0CF045
:1018A00053EF0CF00D8C085008240E6E07AE5BEF62
:1018B0000CF05DEF0CF05EEF0CF00E800E50D8B423
:1018C00064EF0CF066EF0CF07BEF0CF00E28D8A460
:1018D0006CEF0CF06EEF0CF076EF0CF0000E056E76
:1018E000000E066E000E076E000E086E078E000ECC
:1018F000086E83EF0CF0000E056E000E066E000EF3
:10190000076E000E086E0F500E5CD8B08AEF0CF018
:101910008CEF0CF0B3EF0CF00DAC91EF0CF093EFFB
:101920000CF095EF0CF0800E0D1A0FC510F50EC5DA
:101930000FF510C50EF501C510F505C501F510C56B
:1019400005F502C510F506C502F510C506F503C577
:1019500010F507C503F510C507F504C510F508C552
:1019600004F510C508F5000E106E0F500EC509F5F0
:101970000A6A095E000E0A5A0ABEC8EF0CF00A5045
:1019800009E11A0E095CD8A0C8EF0CF0CAEF0CF000
:1019900001EF0DF00150021003100410D8A4D3EF92
:1019A0000CF0D6EF0CF0010ED7EF0CF0000E106E1D
:1019B000000E016E000E026E000E036E000E046E2D
:1019C0000EC50FF50AEF0DF010A0E9EF0CF0EBEFEC
:1019D0000CF0F1EF0CF0D89010300109106EF3EF1D
:1019E0000CF0D890103201A0F8EF0CF0FAEF0CF0E8
:1019F000FBEF0CF0108E0434043203320232013259
:101A00000F2A0E500F5CD8A008EF0DF00AEF0DF072
:101A1000E4EF0CF00DBC0FEF0DF011EF0DF051EFF6
:101A20000DF00F50D8A417EF0DF019EF0DF023EFC4
:101A30000DF0000E016E000E026E000E036E000E21
:101A4000046E72EF0EF00550012606500222075078
:101A500003220850042204A030EF0DF032EF0DF005
:101A6000DEEF0DF010A037EF0DF039EF0DF03FEF86
:101A70000DF0D89010300109106E41EF0DF0D890A4
:101A8000103201A046EF0DF048EF0DF049EF0DF0D8
:101A9000108E043404320332023201320F2ADEEF98
:101AA0000DF00550015C06500258075003580450D1
:101AB000800A096E0850800A0958D8B062EF0DF00C
:101AC00064EF0DF08FEF0DF00150055C096E0250D0
:101AD00006580A6E035007580B6E045008580C6ED7
:101AE000FF0E0924016EFF0E0A20026EFF0E0B206E
:101AF000036EFF0E0C20046E800E0D1A106C105039
:101B0000D8A485EF0DF087EF0DF097EF0DF0010EE3
:101B10000126000E02220322042297EF0DF0055049
:101B2000015E0650025A0750035A0850045A0150E9
:101B3000021003100410D8A4A0EF0DF0A2EF0DF0D6
:101B4000D7EF0DF01050D8A4A8EF0DF0AAEF0DF0CC
:101B5000D7EF0DF0000E016E000E026E000E036E48
:101B6000000E046E72EF0EF0D89001360236033686
:101B7000043610AEBEEF0DF0C0EF0DF0C1EF0DF06A
:101B8000018010A0C6EF0DF0C8EF0DF0CCEF0DF006
:101B9000D8801036CEEF0DF0D89010360F50D8B454
:101BA000D4EF0DF0D6EF0DF0D7EF0DF00F0603AE2A
:101BB000DCEF0DF0DEEF0DF0B4EF0DF0000E0E6E69
:101BC00010AEE5EF0DF0E7EF0DF0FFEF0DF010C5F3
:101BD00009F57F0E0916D8B4F0EF0DF0F2EF0DF015
:101BE000F6EF0DF0010E0E6EFFEF0DF001A0FBEF12
:101BF0000DF0FDEF0DF0FFEF0DF0F2EF0DF00E50D8
:101C0000D8B405EF0EF007EF0EF032EF0EF0010E34
:101C10000126000E02220322042204A012EF0EF07D
:101C200014EF0EF032EF0EF001C509F502C50AF50A
:101C300003C50BF504C50CF50C340C320B320A321B
:101C4000093209C501F50AC502F50BC503F50CC536
:101C500004F50F28D8B42FEF0EF031EF0EF032EF6D
:101C60000EF00F2A0F28D8B438EF0EF03AEF0EF02E
:101C700042EF0EF00F50D8A440EF0EF042EF0EF0FE
:101C800054EF0EF0000E016E000E026E000E036E99
:101C9000000E046E0F50D8A450EF0EF052EF0EF06D
:101CA00054EF0EF0000E0D6E0FA059EF0EF05BEF2B
:101CB0000EF05EEF0EF0038E5FEF0EF0039ED890F5
:101CC0000F30046E0DAE67EF0EF069EF0EF06AEFA5
:101CD0000EF0048E01C501F502C502F503C503F53A
:101CE00004C504F512001250800B1B6E1250122412
:101CF000216E11AE7EEF0EF080EF0EF081EF0EF050
:101D000021802150D8B487EF0EF089EF0EF09CEFC0
:101D10000EF02128D8A48FEF0EF091EF0EF099EF7E
:101D20000EF0000E0F6E000E106E000E116E000E03
:101D3000126E118EA4EF0EF0000E0F6E000E106EDC
:101D4000000E116E000E126E1650800B1B1A1650EC
:101D50001624206E15AEAFEF0EF0B1EF0EF0B2EF1D
:101D60000EF020802050D8B4B8EF0EF0BAEF0EF08D
:101D7000CDEF0EF02028D8A4C0EF0EF0C2EF0EF089
:101D8000CAEF0EF0000E136E000E146E000E156EEC
:101D9000000E166E158ED5EF0EF0000E136E000EAF
:101DA000146E000E156E000E166E2050D8B4DBEFC8
:101DB0000EF0DDEF0EF0E5EF0EF02150D8A4E3EFCA
:101DC0000EF0E5EF0EF0EFEF0EF0000E0F6E000ECE
:101DD000106E000E116E000E126E87EF10F015508F
:101DE0000F02F3C426F5F4C427F526501C6E1D6AB5
:101DF0001E6A1F6A2750226E236A246A256A1450BD
:101E00001002F3C426F5F4C427F526501C26000E54
:101E10001D221E221F2227502226000E23222422AA
:101E2000252213501102F3C426F5F4C427F52650D9
:101E30001C26000E1D221E221F2227502226000EC5
:101E40002322242225221EC51FF51DC51EF51CC5F3
:101E50001DF51C6A13501002F3C426F5F4C427F5CF
:101E600026501C2627501D22000E1E22000E1F2267
:101E700014500F02F3C426F5F4C427F526501C268F
:101E800027501D22000E1E22000E1F221EC51FF508
:101E90001DC51EF51CC51DF51C6A13500F02F3C4A9
:101EA00026F5F4C427F526501C2627501D22000EC7
:101EB0001E22000E1F2215501002F3C426F5F4C492
:101EC00027F52650222627502322000E2422000E1A
:101ED000252214501102F3C426F5F4C427F5265028
:101EE000222627502322000E2422000E25221550E0
:101EF0001102F3C426F5F4C427F52650176E2750B7
:101F0000186E196A1A6A19C51AF518C519F517C590
:101F100018F5176A17502226185023221950242228
:101F20001A5025221CC517F51DC518F51EC519F533
:101F30001FC51AF5190EA2EF0FF0D8901A321932F8
:101F400018321732E82E9DEF0FF017502226185046
:101F50002322195024221A5025221EC51FF51DC503
:101F60001EF51CC51DF51C6A205021C517F5186A01
:101F70001726000E1822820E1724266EFF0E182038
:101F8000276ED8EF0FF0D890223623362436253628
:101F90001FAECDEF0FF0CFEF0FF0D0EF0FF022809C
:101FA000D8901C361D361E361F362606D8A02706AA
:101FB00024AEDDEF0FF0DFEF0FF0C3EF0FF0000EF8
:101FC000206E1FAEE6EF0FF0E8EF0FF00CEF10F011
:101FD000FF0E1C14176EFF0E1D14186EFF0E1E143C
:101FE000196E7F0E1F141A6E1750181019101A1040
:101FF000D8B4FDEF0FF0FFEF0FF003EF10F0010E7C
:10200000206E0CEF10F022A008EF10F00AEF10F095
:102010000CEF10F0FFEF0FF02050D8B412EF10F0DB
:1020200014EF10F038EF10F0010E2226000E2322DC
:102030002422252225A01FEF10F021EF10F038EF09
:1020400010F022C517F523C518F524C519F525C5C7
:102050001AF51A341A3219321832173217C522F506
:1020600018C523F519C524F51AC525F5264A272ACA
:1020700027BE43EF10F0275008E12628D8A043EFF1
:1020800010F045EF10F04FEF10F0000E226E000E32
:10209000236E800E246E7F0E256E7DEF10F027BE1E
:1020A0005CEF10F0275006E12604D8B05AEF10F08C
:1020B0005CEF10F068EF10F0000E226E000E236E41
:1020C000000E246E000E256E000E1B6E7DEF10F0CC
:1020D00026C521F5FF0E2216FF0E23167F0E2416AD
:1020E000000E251621A077EF10F079EF10F07AEFAF
:1020F00010F0248ED8902130256E1B50251222C559
:102100000FF523C510F524C511F525C512F51200EC
:102110002B50800B386E2B502B243F6E2AAE93EF42
:1021200010F095EF10F096EF10F03F803F50D8B4CC
:102130009CEF10F09EEF10F0B3EF10F03F28D8A402
:10214000A4EF10F0A6EF10F0AEEF10F0000E286E26
:10215000000E296E000E2A6E000E2B6E2A8E000EC7
:102160002B6EBBEF10F0000E286E000E296E000ED5
:102170002A6E000E2B6E2F50800B381A2F502F24F2
:10218000406E2EAEC6EF10F0C8EF10F0C9EF10F0A1
:1021900040804050D8B4CFEF10F0D1EF10F0E6EF10
:1021A00010F04028D8A4D7EF10F0D9EF10F0E1EFED
:1021B00010F0000E2C6E000E2D6E000E2E6E000E16
:1021C0002F6E2E8E000E2F6EEEEF10F0000E2C6E86
:1021D000000E2D6E000E2E6E000E2F6E2C502D1048
:1021E0002E102F10D8A4F7EF10F0F9EF10F011EF28
:1021F00011F0000E286E000E296E000E2A6E000EE1
:102200002B6E800E2A127F0E2B1238502B1228C5EF
:1022100028F529C529F52AC52AF52BC52BF554EF34
:1022200012F03F50D8A417EF11F019EF11F023EF7F
:1022300011F0000E286E000E296E000E2A6E000EA0
:102240002B6E54EF12F040503FC530F5316A305ECE
:10225000000E315A7F0E3024396E000E31203A6E56
:1022600028C534F529C535F52AC536F52BC537F50A
:10227000000E286E000E296E000E2A6E000E2B6EC8
:10228000000E3B6E000E3C6E000E3D6E000E3E6E6C
:10229000000E406E84EF11F04050D8B452EF11F0B0
:1022A00054EF11F06BEF11F0D890343635363636E6
:1022B0003736D890283629362A362B363EAE63EF8D
:1022C00011F065EF11F066EF11F02880D8903B36E1
:1022D0003C363D363E362C50345C2D5035582E5011
:1022E00036582F503758D8A078EF11F07AEF11F008
:1022F00083EF11F03E8C2C50345E2D50355A2E5009
:10230000365A2F50375A402A190E40648AEF11F07E
:102310008CEF11F04CEF11F03450351036103710AF
:10232000D8B495EF11F097EF11F0AFEF11F03B80BB
:10233000AFEF11F0D890283629362A362B363EAE2C
:10234000A4EF11F0A6EF11F0A7EF11F02880D890BC
:102350003B363C363D363E363906D8A03A062AAEE4
:10236000B4EF11F0B6EF11F09AEF11F0000E406EDD
:102370003EAEBDEF11F0BFEF11F0E3EF11F0FF0E35
:102380003B14306EFF0E3C14316EFF0E3D14326E66
:102390007F0E3E14336E3050311032103310D8B4EB
:1023A000D4EF11F0D6EF11F0DAEF11F0010E406E1C
:1023B000E3EF11F028A0DFEF11F0E1EF11F0E3EF10
:1023C00011F0D6EF11F04050D8B4E9EF11F0EBEF77
:1023D00011F00FEF12F0010E2826000E29222A22FA
:1023E0002B222BA0F6EF11F0F8EF11F00FEF12F007
:1023F00028C530F529C531F52AC532F52BC533F589
:102400003334333232323132303230C528F531C5CF
:1024100029F532C52AF533C52BF5394A3A2A3ABE91
:102420001AEF12F03A5008E13928D8A01AEF12F04A
:102430001CEF12F027EF12F0000E3A6E3968000E12
:10244000286E000E296E000E2A6E000E2B6E3ABE0C
:1024500034EF12F03A5006E13904D8B032EF12F0FE
:1024600034EF12F042EF12F0000E3A6E000E396EA9
:10247000000E286E000E296E000E2A6E000E2B6EC6
:10248000000E386E39C53FF53FA049EF12F04BEF13
:1024900012F04EEF12F02A8E4FEF12F02A9ED890D3
:1024A0003F302B6E05EF11F012008EC5D9F48FC5A9
:1024B000DAF4DEC4F6F4DDC4F7F40800F550250ABA
:1024C000D8A465EF12F067EF12F09EEF13F08EC5FF
:1024D000D9F48FC5DAF4DE2A000EDD22000E0501E4
:1024E000D36F000ED26FD2C5D6F5D469D5698EC52B
:1024F000D9F48FC5DAF4DEC497F5DDC498F597C535
:10250000F6F498C5F7F40800F550640AD8B48BEFD8
:1025100012F08DEF12F09BEF12F097C5F6F498C50C
:10252000F7F40800F550690AD8A499EF12F09BEF70
:1025300012F0C9EF12F090C5D9F491C5DAF4DFC4F6
:102540005EF5020EDE26DFC45FF5000EDD225EC5FD
:10255000D9F45FC5DAF4DEC492F5DDC493F5010E5B
:1025600097255E6E000E98215F6E8EC5D9F48FC5DB
:10257000DAF45EC5DEF45FC5DDF48CC51CF58DC5EF
:102580001DF592C51EF593C51FF56DEC16F0B2EF63
:1025900013F08EC5D9F48FC5DAF4DEC497F5DDC427
:1025A00098F597C5F6F498C5F7F40800F5C496F5C4
:1025B000E6EF12F0974B982BFFEF12F06C0E966F30
:1025C000FFEF12F0000E966FFFEF12F096515E6E65
:1025D0005F6A5F50000AD8B4F0EF12F0E2EF12F039
:1025E0005E504C0AD8B4DAEF12F02A0AD8B4DEEF03
:1025F00012F00A0AD8B4DAEF12F0E2EF12F097C53F
:10260000F6F498C5F7F40800F550660AD8A40BEF65
:1026100013F00DEF13F095EF13F043EF13F090C5A7
:10262000D9F491C5DAF4DFC45EF5040EDE26DFC40A
:102630005FF5000EDD225EC5D9F45FC5DAF4DEC4B5
:1026400092F5DEC493F5DEC494F5DEC495F558EF3B
:1026500013F090C5D9F491C5DAF4DFC45EF5040E29
:10266000DE26DFC45FF5000EDD225EC5D9F45FC54E
:10267000DAF4DEC492F5DEC493F5DEC494F5DEC46C
:1026800095F558EF13F096515E6E5F6A5F50000A41
:10269000D8B44DEF13F058EF13F05E504C0AD8B495
:1026A00029EF13F0200AD8B40FEF13F058EF13F00E
:1026B000010E97255E6E000E98215F6E8EC5D9F4CF
:1026C0008FC5DAF45EC5DEF45FC5DDF47FEF13F08D
:1026D0008CC555F58DC556F592C557F593C558F57A
:1026E00094C559F595C55AF597C5F6F498C5F7F40C
:1026F0000800F5C45BF517EC07F0B2EF13F097C5CF
:10270000F6F498C5F7F40800F5505E6E5F6A5F5006
:10271000000AD8B48EEF13F095EF13F05E50660AFE
:10272000D8B468EF13F095EF13F08EC5D9F48FC5C8
:10273000DAF4DE2A000EDD22B2EF13F08EC5D9F4F2
:102740008FC5DAF4DEC4F6F4DDC4F7F40800F55002
:10275000016E026A8CC503F58DC504F52AEC19F0EB
:1027600095EF13F01200CAC551F5CBC552F5CCC593
:1027700053F5CDC554F541C551F542C552F543C594
:1027800053F544C554F5810E456EFF0E466E51C596
:1027900047F552C548F553C549F554C54AF5180ED5
:1027A000D7EF13F0D8904A32493248324732E82EF8
:1027B000D2EF13F0475045244F6E000E4620506E66
:1027C00050BEECEF13F0505009E1170E4F5CD8A04B
:1027D000ECEF13F0EEEF13F0F8EF13F041C541F515
:1027E00042C542F543C543F544C544F5BBEF14F07B
:1027F00050BEFDEF13F0FFEF13F06FEF14F04FC575
:1028000045F5FF0E466EFF0E476E7F0E486E000EBA
:10281000496E45660EEF14F016EF14F04934493254
:10282000483247324632452E09EF14F046C54BF583
:1028300047C54CF548C54DF549C54EF54B505114AB
:10284000456E4C505214466E4D505314476E4E50C8
:102850005414486E4550461047104810D8A433EF22
:1028600014F035EF14F037EF14F0EEEF13F051C51C
:1028700045F552C546F553C547F554C548F5200EF4
:1028800047EF14F0D8904832473246324532E82EAE
:1028900042EF14F04550461047104810D8B453EF9B
:1028A00014F055EF14F05DEF14F04B5051264C50DE
:1028B00052224D5053224E5054224B1C456E4C1CFC
:1028C000466E4D1C476E4E1C486E45505116465084
:1028D00052164750531648505416B3EF14F051C5D2
:1028E00045F552C546F553C547F554C548F5200E84
:1028F0007FEF14F0D8904832473246324532E82E06
:102900007AEF14F04550461047104810D8A48BEFCA
:1029100014F08DEF14F097EF14F0000E516E000ECE
:10292000526E000E536E000E546EB3EF14F0D8903A
:102930005134456E5234466E5334476E5434486EAB
:102940004550461047104810D8B4A9EF14F0ABEF2B
:1029500014F0B3EF14F0000E516E000E526E800EA4
:10296000536EBF0E546E51C541F552C542F553C565
:1029700043F554C544F51200096E0950D8B4C3EFAD
:1029800014F0C5EF14F0E7EF14F004BECCEF14F030
:10299000CAEF14F0E7EF14F001C505F502C506F51E
:1029A00003C507F504C508F5051E061E071E081E0B
:1029B000052A000E06220722082205C50BF506C5CA
:1029C0000CF507C50DF508C50EF5EFEF14F001C5C0
:1029D0000BF502C50CF503C50DF504C50EF5015048
:1029E000021003100410D8A4F8EF14F0FAEF14F05A
:1029F00004EF15F0000E016E000E026E000E036E65
:102A0000000E046E95EF15F0960E0A6E0EEF15F09F
:102A10000A2AD8900E320D320C320B32000E0B14F3
:102A2000056E000E0C14066E000E0D14076EFE0EE1
:102A30000E14086E0550061007100810D8A423EFD6
:102A400015F025EF15F008EF15F033EF15F00A2A11
:102A5000010E0B26000E0C220D220E22D8900E32F3
:102A60000D320C320B32000E0B14056E000E0C14DE
:102A7000066E000E0D14076EFF0E0E14086E055044
:102A8000061007100810D8A448EF15F04AEF15F00B
:102A900027EF15F052EF15F00A06D8900B360C36DA
:102AA0000D360E360DBE57EF15F059EF15F061EFEC
:102AB00015F0020E0A605FEF15F061EF15F04CEFB4
:102AC00015F00AB066EF15F068EF15F069EF15F034
:102AD0000D9ED8900A320AC505F5066A076A086A8B
:102AE00005C508F5076A066A056A05500B12065007
:102AF0000C1207500D1208500E120950D8B483EF73
:102B000015F085EF15F08DEF15F004BE8CEF15F084
:102B10008AEF15F08DEF15F00E8E0BC501F50CC583
:102B200002F50DC503F50EC504F51200000E0A6E80
:102B3000000E096E0B680C68000E0F6E000E106E12
:102B4000000E0D6E000E0E6E000E146E000E136E53
:102B500013C501F514C502F56FEC1BF001C511F5A5
:102B600002C512F5D8901334D96E1434DA6E540EAF
:102B7000D926060EDA2211C5DEF412C5DDF4115095
:102B8000095C12500A58D8B0C8EF15F0CAEF15F01A
:102B9000D2EF15F011C509F512C50AF50FC50DF5EF
:102BA00013C50FF50B50115C0C501258D8B0DBEF69
:102BB00015F0DDEF15F0E5EF15F011C50BF512C5B9
:102BC0000CF510C50EF513C510F5134A142A14BEE2
:102BD000F3EF15F0145009E1040E135CD8A0F3EFE5
:102BE00015F0F5EF15F0A8EF15F00D500F18D8A45B
:102BF000FCEF15F0FEEF15F007EF16F00E50101871
:102C0000D8B405EF16F007EF16F06CEF16F0290EAA
:102C10000201136F290E0D6F290E0E6F290E0F6F13
:102C200022EF16F00A0E0F6F4FEF16F00A0E0E6F1E
:102C30004FEF16F00A0E0D6F4FEF16F00A0E136FDE
:102C40004FEF16F00F50076E086A0850000AD8B40C
:102C50002CEF16F04FEF16F00750000AD8B412EF21
:102C600016F0010AD8B416EF16F0030AD8B41AEF1A
:102C700016F0010AD8B41EEF16F04FEF16F00B0E47
:102C80000F6F6CEF16F00B0E0E6F6CEF16F00B0E55
:102C90000D6F6CEF16F00B0E136F6CEF16F01050FB
:102CA000076E086A0850000AD8B459EF16F06CEFA6
:102CB00016F00750000AD8B43FEF16F0010AD8B456
:102CC00043EF16F0030AD8B447EF16F0010AD8B460
:102CD0004BEF16F06CEF16F012001FBE72EF16F0FD
:102CE00075EF16F0010E76EF16F0000E286E2850E4
:102CF000D8B47DEF16F07FEF16F083EF16F01E6C60
:102D00001F1ED8B01F2A0501D5BF8BEF16F089EF23
:102D100016F091EF16F0000E236E010E226E95EF65
:102D200016F0D4C522F5D5C523F5D2C524F5D3C5F3
:102D300025F52850D8B49FEF16F0A1EF16F0B8EFA4
:102D400016F02406D8A025062850D8A4AAEF16F01D
:102D5000ACEF16F0B2EF16F0000E216E2B0E206EC7
:102D6000B6EF16F0000E216E2D0E206E20C528F550
:102D7000000E276E4F0E266E000E0601536FF1EF08
:102D800016F02606D8A02706040E2624D96E060EB5
:102D90002720DA6E1EC501F51FC502F5000E046E70
:102DA0000A0E036E52EC1AF001C507F502C508F5CC
:102DB00030EC1DF00750300FDF6E2206D8A023063E
:102DC0002406D8A025061EC501F51FC502F5000E74
:102DD000046E0A0E036E8FEC19F001C51EF502C5D4
:102DE0001FF527BEFCEF16F0275008E12604D8A0F7
:102DF000FCEF16F0FEEF16F014EF17F01E501F1048
:102E0000D8A405EF17F007EF17F0C1EF16F023BEB7
:102E100014EF17F0235006E12204D8B012EF17F098
:102E200014EF17F0C1EF16F02850D8B41AEF17F0CE
:102E30001CEF17F027EF17F02606D8A02706040E80
:102E40002624D96E060E2720DA6E28C5DFF41CC5AD
:102E500011F51DC512F5040E2624136E060E27204B
:102E6000146E24C515F525C516F5FFEC1AF01200F1
:102E7000033404340A6E0A50D8A441EF17F043EF2C
:102E800017F04DEF17F0000E016E000E026E000EEF
:102E9000036E000E046EBAEF17F001C505F502C50A
:102EA00006F503C507F504C508F5200E5DEF17F01C
:102EB000D8900832073206320532E82E58EF17F064
:102EC0000550096E038EFF0E0116FF0E0216FF0E4F
:102ED0000316000E0416960E0A5E0ABE74EF17F073
:102EE00072EF17F08AEF17F00A50800A970FD8B0E8
:102EF0007CEF17F07EEF17F080EF17F043EF17F03D
:102F0000D89004320332023201320A3E80EF17F0C9
:102F1000A2EF17F01F0E0A6490EF17F092EF17F070
:102F20009AEF17F043EF17F0D890013602360336C8
:102F300004360A060A50D8A4A0EF17F0A2EF17F043
:102F400094EF17F00950D8B4A8EF17F0AAEF17F0D4
:102F5000B2EF17F0041E031E021E016C000E0222C7
:102F60000322042201C501F502C502F503C503F5DC
:102F700004C504F51200000E2814306E000E29144A
:102F8000316E800E2A14326E7F0E2B14336E305049
:102F9000311032103310D8A4D0EF17F0D2EF17F061
:102FA000DAEF17F0000E286E000E296E000E2A6E62
:102FB000000E2B6E000E2C14306E000E2D14316E90
:102FC000800E2E14326E7F0E2F14336E305031105F
:102FD00032103310D8A4EFEF17F0F1EF17F0F9EF3C
:102FE00017F0000E2C6E000E2D6E000E2E6E000ED1
:102FF0002F6E2BAEFEEF17F000EF18F009EF18F070
:10300000286C291ED8B0292A2A1ED8B02A2A800E58
:103010002B562FAE0EEF18F010EF18F019EF18F036
:103020002C6C2D1ED8B02D2A2E1ED8B02E2A800E24
:103030002F56000E281A000E291A000E2A1A800E8A
:103040002B1A000E2C1A000E2D1A000E2E1A800EAE
:103050002F1A2C50285C2D5029582E502A582F50AA
:103060002B58D8B036EF18F038EF18F03BEF18F0C7
:10307000D8903CEF18F0D8801200CEC50BF5CFC524
:103080000CF5D0C50DF5D1C50EF501C50BF502C582
:103090000CF503C50DF504C50EF50BC505F50CC5FE
:1030A00006F50DC507F50EC508F5180E5DEF18F00D
:1030B000D8900832073206320532E82E58EF18F061
:1030C0000550096E0A6A09500A10D8A46AEF18F070
:1030D0006CEF18F08CEF18F0D8900B34056E0C34B0
:1030E000066E0D34076E0E34086E0550061007107C
:1030F0000810D8A47EEF18F080EF18F086EF18F0D3
:10310000000E026E020E016EBBEF18F0000E026E92
:10311000030E016EBBEF18F009280A10D8A493EF34
:1031200018F095EF18F0B7EF18F00BC505F50CC5C2
:1031300006F50DC507F50EC508F5090ED89005363C
:10314000063607360836E82E9EEF18F005500610B2
:1031500007100810D8B4AFEF18F0B2EF18F0010E56
:10316000B3EF18F0000E016E026ABBEF18F0000E0C
:10317000026E040E016E1200020E0001B16FAD511D
:103180008F0B6009AD6FCDEC1CF066EC1CF09FEC72
:103190001BF0040096EC15F06F0E136E120E146EF9
:1031A000030E156E400E166E060158515625050188
:1031B000C86F0601595157210501C96F06015A51BF
:1031C0000501C82706015B510501C92306015451B9
:1031D0000501C827060155510501C923C8C501F5D8
:1031E000C9C502F5036A046A000EBCEC14F001C5FF
:1031F0000FF502C510F503C511F504C512F573EC02
:103200000EF00FC528F510C529F511C52AF512C510
:103210002BF5000E2C6EF00E2D6E7F0E2E6E450ED1
:103220002F6E88EC10F028C500F629C501F62AC5D6
:1032300002F62BC503F6820E0501C86FDD0EE82EDF
:10324000FED7C82FFCD700D0F1EC19F0C9EF18F069
:10325000FEEF3FF003500410D8B431EF19F033EF14
:1032600019F03CEF19F003500410D8A43AEF19F00C
:103270003CEF19F041EF19F001506EEC1DF08EEFAC
:1032800019F020EE0AF00350D9260450DA22DE505D
:10329000DE10D8B44EEF19F050EF19F06BEF19F0C3
:1032A00020EE0AF00350D9260450DA2210EE03F083
:1032B0000350E1260450E222DE50E65CE650800A2C
:1032C000096EDE50800A0958D8B069EF19F06BEF2B
:1032D00019F08EEF19F020EE03F00350D9260450B8
:1032E000DA22DEC405F5DDC406F503C5D9F404C54C
:1032F000DAF4DEC407F5DDC408F505500724D96EFD
:1033000006500820DA6E01C5DFF420EE03F003500A
:10331000D9260450DA22DE2A000EDD221200000E29
:10332000066E04BE98EF19F096EF19F09EEF19F0B3
:10333000036C041ED8B0042A010E066E02BEA5EF6F
:1033400019F0A3EF19F0ABEF19F0016C021ED8B021
:10335000022A010E061A000E086E000E076E0350B8
:103360000410D8B4B6EF19F0B8EF19F0E0EF19F087
:10337000010E056EC0EF19F0D89003360436052A09
:1033800004AEC5EF19F0C7EF19F0BCEF19F0D890F3
:10339000073608360350015C04500258D8A0D3EF1A
:1033A00019F0D5EF19F0DAEF19F00350015E04506F
:1033B000025A0780D89004320332052EC7EF19F065
:1033C0000650D8B4E6EF19F0E8EF19F0ECEF19F079
:1033D000076C081ED8B0082A07C501F508C502F514
:1033E00012005C0E0501A16F060EA26F010EA36F05
:1033F0000E0EA46F54C6A5F555C6A6F556C6A7F57C
:1034000057C6A8F558C6A9F559C6AAF55AC6ABF5C8
:103410005BC6ACF50FC2ADF5AE6B0EC2AFF5B06BCF
:103420000DC2B1F5B26B13C2B3F5B46B00C6B5F5FE
:1034300001C6B6F502C6B7F503C6B8F5F3EC1BF046
:10344000000E06019D6F000E9C6F5C0E9C25D96ED0
:10345000060E9D21DA6EDF50ABEC1CF05C0E06010F
:103460009C25D96E060E9D21DA6E0A0EDE18D8A4B0
:103470003CEF1AF03EEF1AF040EF1AF050EF1AF05E
:103480009C4B9D2B9DBF4EEF1AF09D5109E1400EC4
:103490009C5DD8A04EEF1AF050EF1AF025EF1AF00D
:1034A00000F01200000E066E02BE5BEF1AF059EF3C
:1034B0001AF061EF1AF0016C021ED8B0022A010E58
:1034C000066E04BE68EF1AF066EF1AF06CEF1AF0A1
:1034D000036C041ED8B0042A03500410D8B473EF50
:1034E0001AF075EF1AF099EF1AF0010E056E7DEFE4
:1034F0001AF0D89003360436052A04AE82EF1AF08B
:1035000084EF1AF079EF1AF00350015C045002586E
:10351000D8A08DEF1AF08FEF1AF093EF1AF0035046
:10352000015E0450025AD89004320332052E84EF13
:103530001AF00650D8B49FEF1AF0A1EF1AF0A5EFD9
:103540001AF0016C021ED8B0022A01C501F502C5AD
:1035500002F51200000E0114096E000E02140A6E2C
:10356000800E03140B6E7F0E04140C6E09500A10AB
:103570000B100C10D8A4BFEF1AF0C1EF1AF0C9EF6E
:103580001AF0000E016E000E026E000E036E000EA9
:10359000046E000E0514096E000E06140A6E800EED
:1035A00007140B6E7F0E08140C6E09500A100B10D6
:1035B0000C10D8A4DEEF1AF0E0EF1AF0E8EF1AF0E2
:1035C000000E056E000E066E000E076E000E086EF1
:1035D000055001180FE1065002180CE107500318BE
:1035E00009E108500418D8B4F8EF1AF0FAEF1AF00D
:1035F000FDEF1AF0D890FEEF1AF0D880120016BE38
:1036000004EF1BF006EF1BF00CEF1BF015C51AF5CD
:1036100016C51BF510EF1BF0000E1B6E000E1A6E88
:10362000000E196E000E186E22EF1BF0000E026ED7
:10363000200E016E11C503F512C504F52AEC19F030
:10364000184A192A1A50185C1950800A176E1B5014
:10365000800A1758D8A02FEF1BF031EF1BF016EFA0
:103660001BF013C50AF514C50BF511C50CF512C5F1
:103670000DF589EC1CF0120004BE4BEF1BF004505A
:103680000310021006E10104D8B049EF1BF04BEF24
:103690001BF066EF1BF001C505F502C506F503C575
:1036A00007F504C508F5051E061E071E081E052A97
:1036B000000E06220722082205C501F506C502F5FF
:1036C00007C503F508C504F56EEF1BF001C501F54C
:1036D00002C502F503C503F504C504F512003B0E4F
:1036E0000301EC6FF381F3B178EF1BF07AEF1BF07D
:1036F00073EF1BF0D70E0124D96E050E0220DA6E8F
:10370000DF50EC6FF38FF381F3B189EF1BF08BEF98
:103710001BF084EF1BF0EBC303F5EAC304F503C50C
:1037200005F5066A0550066E056A05500410056E1B
:103730000650066E05C501F506C502F51200020E1B
:103740000001B16FAD518F0B6009AD6F100E02011A
:10375000116FC89004011093110E0201726FAB9F9C
:10376000AB51F00B0309AB6FAB89AB8BAD9DAD9546
:10377000CF0EAD17000EAF6F190EAE6FD68ED68A74
:10378000AC86AC8003016B81B790000E0201A16F83
:10379000AC8F12009BC59FF59CC5A0F5DFEF1BF019
:1037A00099C58CF59AC58DF59F0E05018E6F050E96
:1037B0008F6F9DC590F59EC591F555EC12F09FC594
:1037C000F6F4A0C5F7F40800F5500009D8A4EBEF13
:1037D0001BF0EDEF1BF0D0EF1BF0000E05019A6F10
:1037E000000E996F1200A50E0501B96F050EBA6F94
:1037F000A1C5BBF5A2C5BCF5000EBF6F000EBE6F24
:10380000000EC66F000EC56FBB0E996F050E9A6F46
:10381000A3C59BF5A4C59CF5B90E9D6F050E9E6FC3
:10382000CAEC1BF00501BE51A125D96EBF51A221E2
:10383000DA6EDF6A120003C509F504C50AF501C591
:1038400007F502C508F535EF1CF009C5D9F40AC51E
:10385000DAF4DF500B6E094A0A2A07C5D9F408C505
:10386000DAF40BC5DFF4074A082A0506D8A00606D5
:10387000052806E10628D8A440EF1CF042EF1CF012
:1038800025EF1CF01200000E2C1A000E2D1A000E4F
:103890002E1A800E2F1A28C501F529C502F52AC552
:1038A00003F52BC504F52CC505F52DC506F52EC56C
:1038B00007F52FC508F513EC0CF001C528F502C576
:1038C00029F503C52AF504C52BF51200C750800958
:1038D000C76EC850C809C86E040108518009086F36
:1038E0001051C809106F0F0E0301F817F851F00BB3
:1038F0000309F86FD751FC0B0209D76FD78FF3512B
:10390000F30B0409F36FF389000EEF6F200EEE6FD7
:103910001200000E106E000E0F6E9AEF1CF00EC516
:1039200001F5026A0CC503F50DC504F52AEC19F082
:103930000F4A102A0F500A24D96E10500B20DA6E4D
:10394000DF500E6E0E50D8A4A8EF1CF0AAEF1CF0AA
:103950008FEF1CF01200016E000E036E000E026E5F
:10396000B4EF1CF0024A032A0201B0A9BAEF1CF01E
:10397000BCEF1CF0CAEF1CF003BEC8EF1CF0E80E51
:10398000025C030E0358D8A0C8EF1CF0CAEF1CF06D
:10399000B2EF1CF001C5A3F21200C894C798C79AF1
:1039A000C79C000E606E020E616E190E646EC80E2A
:1039B000636E000E656E000E686E69846A9C6A9E76
:1039C0006A866A50F80B01096A6E190E6C6EC80E91
:1039D0006B6E190E6E6EC80E6D6E698E1200D80E6B
:1039E000F66E3A0EF76E000EF86E01EED7F110EE9D
:1039F00004F00900F5C4EEF4E550E150FAE101EEFF
:103A000000F25C0EEE6AE806FDE101EECAF10D0E71
:103A1000EE6AE806FDE1000EF86E0001BCEF18F05A
:103A200003C505F504C506F501C507F502C508F58A
:103A300005C5F6F406C5F7F4054A062A07C5D9F404
:103A400008C5DAF4074A082A0800F5C4DFF4DF5095
:103A5000D8A42DEF1DF02FEF1DF018EF1DF0120070
:103A600008BE3DEF1DF0085006E10704D8B03BEF5B
:103A70001DF03DEF1DF04BEF1DF007C509F508C522
:103A80000AF5091E0A1E094A0A2A09C507F50AC5C8
:103A900008F54FEF1DF007C507F508C508F512003A
:103AA0000150021003100410D8B459EF1DF05BEF61
:103AB0001DF063EF1DF0000E011A000E021A000E39
:103AC000031A800E041A01C501F502C502F503C5EB
:0E3AD00003F504C504F512001316170F1200BB
:047FFC00EFEF1CF097
:00000001FF
