:04000000FEEF3FF0E0
:107F30001316170F020E0001B16FAD518F0B6009C0
:107F4000AD6FBFEC3FF0DDEC3FF00A0E02010E6FAB
:107F50000B0E0F6FFEEF3FF0300EF66E7F0EF76EDA
:107F6000000EF86E01EE01F110EE04F00900F5C408
:107F7000EEF4E550E150FAE100019AEF3FF0C894C9
:107F8000C798C79AC79C000E606E020E616E070EFE
:107F9000646ED00E636E000E656E000E686E6984AE
:107FA0006A9C6A9E6A866A50F80B01096A6E6B6861
:107FB0006C686D686E68698E1200C7508009C76E64
:107FC000C850C809C86E040108518009086F1051D3
:107FD000C809106F0F0E0301F817F851F00B0309D1
:107FE000F86F030ED713D78FF351F30B0409F36F18
:107FF000F389000EEF6F200EEE6F1200ACEF3FF032
:00000001FF
