:04000000FEEF3FF0E0
:107F1E00000192EF3FF09AEC3FF0BFEC3FF094EF90
:107F2E003FF0FEEF3FF0C89EC79E0A0E0201106F93
:107F3E000B0E186F000E606E020E616E000E646EF8
:107F4E00C70E636E000E656E000E686E69846A9CC5
:107F5E006A9E6A966A50F80B01096A6E000E6C6E84
:107F6E00000E6B6E000E6E6E000E6D6E698E120040
:107F7E00040E046E6D0E036E6B0E056E040E066E11
:107F8E006D0E076E040E086E000E0A6E140E096E4C
:107F9E00699E05C5D9F406C5DAF409C5DEF40AC52D
:107FAE00DDF4C80E016E000E026E0950015E0A501D
:107FBE00025A07C5D9F408C5DAF401C5DEF402C5C4
:107FCE00DDF4698E0D0E016EFC0EE82EFED7012E2D
:107FDE00FCD7094A0A2A0A5009E1C00E095CD8A04A
:107FEE00FBEF3FF0FDEF3FF0CFEF3FF012008FEFD2
:027FFE003FF052
:00000001FF
