:04000000FEEF3FF0E0
:107F1C00000191EF3FF099EC3FF0BEEC3FF093EF96
:107F2C003FF0FEEF3FF0C89EC79C0A0E02010F6F98
:107F3C000B0E186F000E606E020E616E000E646EFA
:107F4C00C70E636E000E656E000E686E69846A9CC7
:107F5C006A9E6A966A50F80B01096A6E000E6C6E86
:107F6C00000E6B6E000E6E6E000E6D6E698E120042
:107F7C006B0E056E040E066E6D0E076E040E086E0B
:107F8C00000E0A6E000E096E699E05C5D9F406C571
:107F9C00DAF409C5DEF40AC5DDF4C80E016E000E74
:107FAC00026E0950015E0A50025AD8900230046EDB
:107FBC000130036E07C5D9F408C5DAF403C5DEF445
:107FCC0004C5DDF4698E0D0E016EFC0EE82EFED795
:107FDC00012EFCD7094A0A2A0A5009E1C80E095C8D
:107FEC00D8A0FBEF3FF0FDEF3FF0CAEF3FF01200DF
:047FFC008EEF3FF0D5
:00000001FF
