:04000000FEEF3FF0E0
:107E4600000126EF3FF02EEC3FF053EC3FF028EF19
:107E56003FF0FEEF3FF0C89EC79C0A0E02010F6F6F
:107E66000B0E186F000E606E020E616E000E646ED1
:107E7600C70E636E000E656E000E686E69946A9C8E
:107E86006A9E6A966A50F80B01096A6E000E6C6E5D
:107E9600000E6B6E000E6E6E000E6D6E698E120019
:107EA600040E116E6D0E106E000E136E000E126E25
:107EB600040E026E6B0E016E12C503F578EC3FF0F0
:107EC6000D0E0F6EFC0EE82EFED70F2EFCD7124AB3
:107ED600132A135009E1C80E125CD8A075EF3FF0C3
:107EE60077EF3FF05BEF3FF0120001C504F502C5E6
:107EF60005F5040E066E053405320432062E7EEFB5
:107F06003FF004C50DF505C50EF5460E0D180E100D
:107F1600D8A490EF3FF092EF3FF0A4EF3FF00DC5ED
:107F260004F50EC505F5043A053AF00E051604509B
:107F36000F0B0512F00E0416090E0410096E0550FB
:107F46000A6E470E0D180E10D8A4ACEF3FF0AEEF38
:107F56003FF0C0EF3FF00DC504F50EC505F5043A38
:107F6600053AF00E051604500F0B0512F00E041616
:107F7600080E0410096E05500A6E480E0D180E10F4
:107F8600D8A4C8EF3FF0CAEF3FF0DCEF3FF00DC5D5
:107F960004F50EC505F5043A053AF00E051604502B
:107FA6000F0B0512F00E0416070E0410096E05508D
:107FB6000A6E09C50BF50AC50CF50BC5D9F40CC537
:107FC600DAF47F0EDE16FF0EDD1601C507F502C5D3
:107FD60008F50350046E056A07C5D9F408C5DAF436
:107FE60004C5DEF405C5DDF40BC5D9F40CC5DAF419
:0A7FF600000EDB8E120023EF3FF0B7
:00000001FF
