:040000005DEF00F0C0
:100008002E002E002E002E002E002E002E002E0078
:100018002E002E002E002E002E002E002E002E0068
:100028002E002E002E002E002E002E002E002E0058
:100038002E002E002E002E002E002E002E002E0048
:100048002E002E002E002E002E002E002E002E0038
:100058002E002E002E002E002E002E002E002E0028
:100068002E002E002E002E002E002E002E002E0018
:100078002E002E0012012E002E002E002E002E0023
:100088002E002E002E002E002E002E002E002E00F8
:100098002E002E002E002E002E002E002E002E00E8
:1000A8002E002E002E002E002E002E002E002E00D8
:1000B800FF0015EF02F0000E196E000E186E67EFC4
:1000C80000F0184A192A020198BD6DEF00F06FEF91
:1000D80000F07DEF00F019BE7BEF00F0195009E148
:1000E8000A0E185CD8A07BEF00F07DEF00F065EFFA
:1000F80000F0000E196E000E186E98AD86EF00F035
:1001080088EF00F0E2EF00F098B98DEF00F08FEF84
:1001180000F0E2EF00F0000E176E000E166EBAEF58
:1001280000F094999AEF00F0184A192A99B19FEFB4
:1001380000F0A1EF00F0AFEF00F019BEADEF00F056
:10014800195009E1640E185CD8A0ADEF00F0AFEFCC
:1001580000F098EF00F01B0E1624D96E050E17203C
:10016800DA6E8AC2DFF4959D164A172A8C51D8A4F4
:10017800C0EF00F0C2EF00F095EF00F01C501BC577
:1001880010F5116A10C511F5106A1010126E115091
:10019800136E1E501DC510F5116A10C511F5106AB1
:1001A8001010146E1150156E12C501F513C502F525
:1001B80014C503F515C504F5E8EC00F00201949F99
:1001C800000E9A6F948F120001C505F502C506F559
:1001D800040E076ED89006320532072EEEEF00F0B7
:1001E80005C50EF506C50FF5460E0E180F10D8A456
:1001F80000EF01F002EF01F014EF01F00EC505F574
:100208000FC506F5053A063AF00E061605500F0B0F
:100218000612F00E0516090E05100A6E06500B6E32
:10022800470E0E180F10D8A41CEF01F01EEF01F0B6
:1002380030EF01F00EC505F50FC506F5053A063A8B
:10024800F00E061605500F0B0612F00E0516080ED6
:1002580005100A6E06500B6E480E0E180F10D8A423
:1002680038EF01F03AEF01F04CEF01F00EC505F55B
:100278000FC506F5053A063AF00E061605500F0B9F
:100288000612F00E0516070E05100A6E06500B6EC4
:100298000AC50CF50BC50DF50CC5D9F40DC5DAF476
:1002A8007F0EDE16FF0EDD1601C508F502C509F53D
:1002B80008C5D9F409C5DAF403C5DEF404C5DDF4CC
:1002C8000CC5D9F40DC5DAF4000EDB8E1200C89601
:1002D800C898C89CC89EC79E0E0E0201156F0F0EC7
:1002E800146F0A0E176F0B0E186F0C0E106F000E9E
:1002F800606E020E616E000E646EC70E636E000EB5
:10030800656E000E686E69846A9C6A9E6A966A5079
:10031800F80B01096A6E000E6C6E000E6B6E000E13
:100328006E6E000E6D6E000E6F6E020E706E000E19
:10033800736EC70E726E000E746E000E776E788440
:10034800799C6A966A50F80B01096A6E000E7B6EFA
:10035800000E7A6E000E7E6E020E7F6E000E826EAA
:10036800C70E816E000E836E000E866E8784889C91
:10037800889E88968850F80B0109886E000E8A6E50
:10038800000E896E000E8C6E000E8B6E698E788E54
:10039800878E12000201949FC890C89204011091A0
:1003A800109312811283220E0201116F210E126F17
:1003B800100E706F110E716FF80E94179499959135
:1003C800969F968D9699F30E96179B9F9B9D9B994A
:1003D8009B879B959B939B819A959A919A93030EE1
:1003E8009F6F9C8F9C9D9C51C00B23099C6F9069AB
:1003F800030E9E6F040E9D6FD68ED68A03016E85FE
:10040800BA94AF8402019A95948F0D0E1A6EFC0E61
:10041800E82EFED71A2EFCD702019B959B839B8161
:1004280012001E6A1D6A1C6A1B6A0401080E5D6FB1
:0E043800000E5E6F000E5F6F000130EF02F0ED
:1004480002019AA12AEF02F02CEF02F02FEF02F03E
:100458009A915FEC00F011006BEC01F0CEEC01F02A
:100468003AEC02F034EF02F05DEF00F00400040E05
:0604780002018C6F12006E
:00000001FF
