:040000005DEF00F0C0
:100008002E002E002E002E002E002E002E002E0078
:100018002E002E002E002E002E002E002E002E0068
:100028002E002E002E002E002E002E002E002E0058
:100038002E002E002E002E002E002E002E002E0048
:100048002E002E002E002E002E002E002E002E0038
:100058002E002E002E002E002E002E002E002E0028
:100068002E002E002E002E002E002E002E002E0018
:100078002E002E000C012E002E002E002E002E0029
:100088002E002E002E002E002E002E002E002E00F8
:100098002E002E002E002E002E002E002E002E00E8
:1000A8002E002E002E002E002E002E002E002E00D8
:1000B800FF000BEF02F001C504F502C505F5040EBB
:1000C800066E053405320432062E65EF00F004C5CD
:1000D8000DF505C50EF5460E0D180E10D8A477EFD0
:1000E80000F079EF00F08BEF00F00DC504F50EC5B8
:1000F80005F5043A053AF00E051604500F0B0512E3
:10010800F00E0416090E0410096E05500A6E470E0B
:100118000D180E10D8A493EF00F095EF00F0A7EF9C
:1001280000F00DC504F50EC505F5043A053AF00EC4
:10013800051604500F0B0512F00E0416080E0410D5
:10014800096E05500A6E480E0D180E10D8A4AFEFB0
:1001580000F0B1EF00F0C3EF00F00DC504F50EC5D7
:1001680005F5043A053AF00E051604500F0B051272
:10017800F00E0416070E0410096E05500A6E09C524
:100188000BF50AC50CF50BC5D9F40CC5DAF47F0ECE
:10019800DE16FF0EDD1601C507F502C508F503508A
:1001A800046E056A07C5D9F408C5DAF404C5DEF497
:1001B80005C5DDF40BC5D9F40CC5DAF4000EDB8EE9
:1001C8001200000E166E000E156EEDEF00F0154AC7
:1001D800162A020198BDF3EF00F0F5EF00F003EFE7
:1001E80001F016BE01EF01F0165009E10A0E155C88
:1001F800D8A001EF01F003EF01F0EBEF00F0000EE3
:10020800166E000E156E98AD0CEF01F00EEF01F0B2
:100218005BEF01F098B913EF01F015EF01F05BEF18
:1002280001F0000E146E000E136E40EF01F0949969
:1002380020EF01F0154A162A99B125EF01F027EFB2
:1002480001F035EF01F016BE33EF01F0165009E169
:10025800640E155CD8A033EF01F035EF01F01EEF06
:1002680001F0180E1324D96E050E1420DA6E8AC216
:10027800DFF4959D134A142A8C51D8A446EF01F057
:1002880048EF01F01BEF01F0195018C50FF5106A7F
:100298000FC510F50F6A0F10116E1050126E11C5B0
:1002A80001F512C502F51AC503F55FEC00F002016D
:1002B800949F000E9A6F948F1200C896C898C89C95
:1002C800C89EC79E0E0E0201156F0F0E146F0A0E00
:1002D800176F0B0E186F0C0E106F000E606E020E6B
:1002E800616E000E646EC70E636E000E656E000EC2
:1002F800686E69846A9C6A9E6A966A50F80B01095E
:100308006A6E000E6C6E000E6B6E000E6E6E000E46
:100318006D6E000E6F6E020E706E000E736EC70E5D
:10032800726E000E746E000E776E7884799C6A96F1
:100338006A50F80B01096A6E000E7B6E000E7A6E29
:10034800000E7E6E020E7F6E000E826EC70E816EEC
:10035800000E836E000E866E8784889C889E889621
:100368008850F80B0109886E000E8A6E000E896E9F
:10037800000E8C6E000E8B6E698E788E878E120042
:100388000201949FC890C8920401109110931281A1
:100398001283220E0201116F210E126F100E706F60
:1003A800110E716FF80E941794999591969F968DEA
:1003B8009699F30E96179B9F9B9D9B999B879B9560
:1003C8009B939B819A959A919A93030E9F6F9C8F0A
:1003D8009C9D9C51C00B23099C6F9069030E9E6FD6
:1003E800040E9D6FD68ED68A03016E85BA94AF84AB
:1003F80002019A95948F0D0E176EFC0EE82EFED70B
:10040800172EFCD702019B959B839B8112001A6AC9
:10041800196A186A0401080E5D6F000E5E6F000EFF
:100428005F6F000124EF02F002019AA11EEF02F0B3
:1004380020EF02F023EF02F09A91E5EC00F01100B2
:1004480061EC01F0C4EC01F02EEC02F028EF02F0B0
:0E0458005DEF00F00400030E02018C6F120035
:00000001FF
