:040000005DEF00F0C0
:100008002E002E002E002E002E002E002E002E0078
:100018002E002E002E002E002E002E002E002E0068
:100028002E002E002E002E002E002E002E002E0058
:100038002E002E002E002E002E002E002E002E0048
:100048002E002E002E002E002E002E002E002E0038
:100058002E002E002E002E002E002E002E002E0028
:100068002E002E002E002E002E002E002E002E0018
:100078002E002E00E8002E002E002E002E002E004E
:100088002E002E002E002E002E002E002E002E00F8
:100098002E002E002E002E002E002E002E002E00E8
:1000A8002E002E002E002E002E002E002E002E00D8
:1000B800FF009FEF01F0000E1A6E000E196E67EF39
:1000C80000F0194A1A2A020198BD6DEF00F06FEF8F
:1000D80000F07DEF00F01ABE7BEF00F01A5009E146
:1000E8000A0E195CD8A07BEF00F07DEF00F065EFF9
:1000F80000F0000E1A6E000E196E98A986EF00F037
:1001080088EF00F0BEEF00F09499000E1C6E000E10
:100118001B6E010E1B24D96E050E1C20DA6EDF50F3
:100128008B6F99EF00F0194A1A2A99BB9EEF00F0DD
:10013800A0EF00F0AEEF00F01ABEACEF00F01A50DE
:1001480009E1320E195CD8A0ACEF00F0AEEF00F078
:1001580097EF00F01B4A1C2A1CBEBCEF00F01C5095
:1001680009E1180E1B5CD8A0BCEF00F0BEEF00F050
:100178008DEF00F095A9C3EF00F0C5EF00F0BEEFDA
:1001880000F0949F000E9A6F948F12000201949FC2
:10019800040110911093C890C89212811283220E04
:1001A8000201116F210E126F100E706F110E716F18
:1001B800F80E941794999591969F968D9699F30EAB
:1001C80096179B9F9B9D9B999B879B959B939B8138
:1001D8009A959A919A93030E9F6F9C8F9C9D9C5120
:1001E800C00B23099C6F90699169030E9E6F040EE2
:1001F8009D6FD68ED68A03016E85BA94AF840201AC
:100208009A95948F0D0E1D6EFC0EE82EFED71D2EAE
:10021800FCD702019B959B839B811200190E02015A
:100228008C6F000E266E000E256E25C51DF526C5A1
:100238001EF54AEC01F01DC523F51EC524F5D8901E
:100248002534D96E2634DA6E010ED926050EDA2247
:100258002450DF6ED8902534D96E2634DA6E020E1B
:10026800D926050EDA2223C5DFF4254A262A26BE1A
:1002780047EF01F0265009E10C0E255CD8A047EFA6
:1002880001F049EF01F019EF01F012003B0E0301F4
:10029800EC6FF381F3B153EF01F055EF01F04EEF3E
:1002A80001F0270E1D24D96E050E1E20DA6EDF50D0
:1002B800EC6FF38FF381F3B164EF01F066EF01F0B7
:1002C8005FEF01F0EBC31FF5EAC320F51FC521F569
:1002D800226A2150226E216A21502010216E22505C
:1002E800226E21C51DF522C51EF51200C65014093F
:1002F800C66EC750F009C76EC850FC09C86E040125
:1003080000511409006F0851F009086F1051FC09D9
:10031800106F0F0E0301F817F00EF817030ED7131E
:10032800D79FF351F30B0409F36FF389000EEF6FB6
:10033800200EEE6F1200B80EF66E030EF76E000E6A
:10034800F86E01EE27F110EE0CF00900F5C4EEF49A
:10035800E550E150FAE101EE01F1180EEE6AE80607
:10036800FDE10401080E5D6F000E5E6F000E5F6F09
:100378000001BFEF01F0020E0001B16FAD518F0B0C
:100388006009AD6FCAEC00F07AEC01F012EC01F0F4
:10039800CAEF01F05DEF00F002019AA1D6EF01F07B
:1003A800D8EF01F0DBEF01F09A915FEC00F011005B
:0C03B8000415141316170F0E0D0C120282
:00000001FF
