:040000005DEF00F0C0
:100008002E002E002E002E002E002E002E002E0078
:100018002E002E002E002E002E002E002E002E0068
:100028002E002E002E002E002E002E002E002E0058
:100038002E002E002E002E002E002E002E002E0048
:100048002E002E002E002E002E002E002E002E0038
:100058002E002E002E002E002E002E002E002E0028
:100068002E002E002E002E002E002E002E002E0018
:100078002E002E00D2002E002E002E002E002E0064
:100088002E002E002E002E002E002E002E002E00F8
:100098002E002E002E002E002E002E002E002E00E8
:1000A8002E002E002E002E002E002E002E002E00D8
:1000B800FF0073EF01F00201949F04011091109367
:1000C800C890C89212811283220E0201116F210E6C
:1000D800126F100E706F110E716FF80E94179499BD
:1000E8009591969F968D9699F30E96179B9F9B9D3B
:1000F8009B999B879B959B939B819A959A919A93A1
:10010800030E9F6F9C8F9C9D9C51C00B23099C6F75
:1001180090699169030E9E6F040E9D6FD68ED68AE4
:1001280003016E85BA94AF8402019A95948F0D0EDF
:10013800276EFC0EE82EFED7272EFCD702019B95D2
:100148009B839B811200020198ADADEF00F0AFEFE9
:1001580000F0A7EF00F098A9B4EF00F0B6EF00F0B8
:10016800DAEF00F09499000E266E000E256E010E4F
:100178002524D96E050E2620DA6EDF508B6F99ABD9
:10018800C8EF00F0CAEF00F0C3EF00F0254A262AB6
:1001980026BED8EF00F0265009E1180E255CD8A03D
:1001A800D8EF00F0DAEF00F0BBEF00F095A9DFEF31
:1001B80000F0E1EF00F0DAEF00F0949F000E9A6F84
:1001C800948F1200190E02018C6F000E306E000E13
:1001D8002F6E2FC527F530C528F51EEC01F027C571
:1001E8002DF528C52EF5D8902F34D96E3034DA6E17
:1001F800010ED926050EDA222E50DF6ED8902F3444
:10020800D96E3034DA6E020ED926050EDA222DC5E3
:10021800DFF42F4A302A30BE1BEF01F0305009E1DD
:100228000C0E2F5CD8A01BEF01F01DEF01F0EDEFD5
:1002380000F012003B0E0301EC6FF381F3B127EFDE
:1002480001F029EF01F022EF01F0190E2724D96EF1
:10025800050E2820DA6EDF50EC6FF38FF381F3B1CF
:1002680038EF01F03AEF01F033EF01F0EBC329F575
:10027800EAC32AF529C52BF52C6A2B502C6E2B6A5C
:100288002B502A102B6E2C502C6E2BC527F52CC505
:1002980028F51200C6501409C66EC750F009C76E7B
:1002A800C850FC09C86E040100511409006F0851B8
:1002B800F009086F1051FC09106F0F0E0301F817B1
:1002C800F00EF817030ED713D79FF351F30B040959
:1002D800F36FF389000EEF6F200EEE6F1200600EC1
:1002E800F66E030EF76E000EF86E01EE19F110EEC1
:1002F8000CF00900F5C4EEF4E550E150FAE101EE26
:1003080001F1180EEE6AE806FDE10401080E5D6FC2
:10031800000E5E6F000E5F6F000193EF01F0020E9A
:100328000001B16FAD518F0B6009AD6F5FEC00F04C
:100338004EEC01F0E6EC00F09EEF01F05DEF00F00E
:1003480002019AA1AAEF01F0ACEF01F0AFEF01F0C2
:100358009A91A7EC00F011000415141316170F0E4C
:040368000D0C120264
:00000001FF
