:040000005DEF00F0C0
:100008002E002E002E002E002E002E002E002E0078
:100018002E002E002E002E002E002E002E002E0068
:100028002E002E002E002E002E002E002E002E0058
:100038002E002E002E002E002E002E002E002E0048
:100048002E002E002E002E002E002E002E002E0038
:100058002E002E002E002E002E002E002E002E0028
:100068002E002E002E002E002E002E002E002E0018
:100078002E002E00F7002E002E002E002E002E003F
:100088002E002E002E002E002E002E002E002E00F8
:100098002E002E002E002E002E002E002E002E00E8
:1000A8002E002E002E002E002E002E002E002E00D8
:1000B800FF00BDEF01F0000E1C6E000E1B6E67EF17
:1000C80000F01B4A1C2A020198BD6DEF00F06FEF8B
:1000D80000F07DEF00F01CBE7BEF00F01C5009E142
:1000E8000A0E1B5CD8A07BEF00F07DEF00F065EFF7
:1000F80000F0000E1C6E000E1B6E98AD86EF00F02F
:1001080088EF00F0CDEF00F098A98DEF00F08FEFA9
:1001180000F0CDEF00F09499000E1A6E000E196EE3
:10012800010E1924D96E050E1A20DA6EDF508B6F76
:10013800A0EF00F01B4A1C2A99BBA5EF00F0A7EF1F
:1001480000F0B5EF00F01CBEB3EF00F01C5009E161
:10015800640E1B5CD8A0B3EF00F0B5EF00F09EEF83
:1001680000F0000E1C6E000E1B6E194A1A2A1ABEE9
:10017800C7EF00F01A5009E1180E195CD8A0C7EFB4
:1001880000F0C9EF00F094EF00F0CDEF00F01B4A4B
:100198001C2A95B9D2EF00F0D4EF00F0E2EF00F09E
:1001A8001CBEE0EF00F01C5009E1050E1B5CD8A056
:1001B800E0EF00F0E2EF00F0CBEF00F0949F000ECC
:1001C8009A6F948F12000201949FC890C8920401FC
:1001D8001091109312811283220E0201116F210EC9
:1001E800126F100E706F110E716FF80E94179499AC
:1001F8009591969F968D9699F30E96179B9F9B9D2A
:100208009B999B879B959B939B819A959A919A938F
:10021800030E9F6F9C8F9C9D9C51C00B23099C6F64
:10022800600E906F030E9E6F040E9D6FD68ED68A59
:1002380003016E85BA94AF8402019A95948F0D0ECE
:100248001D6EFC0EE82EFED71D2EFCD702019B95D5
:100258009B839B8112000400190E02018C6F000E13
:10026800266E000E256E25C51DF526C51EF568EC03
:1002780001F01DC523F51EC524F5D8902534D96E87
:100288002634DA6E010ED926050EDA222450DF6EE6
:10029800D8902534D96E2634DA6E020ED926050E8A
:1002A800DA2223C5DFF4254A262A26BE65EF01F0A7
:1002B800265009E10C0E255CD8A065EF01F067EF28
:1002C80001F037EF01F012003B0E0301EC6FF381F0
:1002D800F3B171EF01F073EF01F06CEF01F0270E4D
:1002E8001D24D96E050E1E20DA6EDF50EC6FF38FD9
:1002F800F381F3B182EF01F084EF01F07DEF01F0BB
:10030800EBC31FF5EAC320F51FC521F5226A21506A
:10031800226E216A21502010216E2250226E21C5A2
:100328001DF522C51EF51200C6501409C66EC75029
:10033800F009C76EC850FC09C86E040100511409C1
:10034800006F0851F009086F1051FC09106F0F0E6B
:100358000301F817F00EF817030ED713D79FF351C0
:10036800F30B0409F36FF389000EEF6F200EEE6FA5
:100378001200F40EF66E030EF76E000EF86E01EE24
:1003880027F110EE0CF00900F5C4EEF4E550E15049
:10039800FAE101EE01F1180EEE6AE806FDE104014A
:1003A800080E5D6F000E5E6F000E5F6F0001DDEFDF
:1003B80001F0020E0001B16FAD518F0B6009AD6FF6
:1003C800E7EC00F098EC01F02FEC01F0E8EF01F019
:1003D8005DEF00F002019AA1F4EF01F0F6EF01F0F1
:1003E800F9EF01F09A915FEC00F011000415141375
:0803F80016170F0E0D0C120286
:00000001FF
