:04000000FEEF3FF0E0
:107F0600B9EC3FF08FEC3FF0FEEF3FF005040315B0
:107F1600141316170F0E0D0C000E0E6E0A0E0D6EB4
:107F2600D7EC3FF00DC514F50EC515F5410E136ED1
:107F3600EE0EE82EFED7132EFCD700D08FEF3FF0C3
:107F46001200120EF66E7F0EF76E000EF86E01EE40
:107F560001F110EE0CF00900F5C4EEF4E550E15025
:107F6600FAE1176A166A000183EF3FF0C650380936
:107F7600C66EC750F009C76EC850F809C86E04012E
:107F860000513809006F0851F009086F1051F809BF
:107F9600106F0301F351F30B0409F36FF389000E1D
:107FA600EF6F200EEE6F1200010E0D24D96E050E36
:107FB6000E20DA6EDF500301EC6FF38FF381F3B11D
:107FC600E7EF3FF0E9EF3FF0E2EF3FF0EBC30FF5ED
:107FD600EAC310F50FC511F5126A1150126E116A37
:107FE60010501124116E000E1220126E11C50DF5DF
:0A7FF60012C50EF51200A4EF3FF0D3
:00000001FF
